:020000040800F2
:1000000000040020C1010008A1CA0008A1CA00081C
:10001000A1CA0008A1CA0008A1CA0008A1CA000814
:10002000A1CA0008A1CA0008A1CA0008E1930008FB
:10003000A1CA0008A1CA0008A1CA0008A1CA0008F4
:10004000A1CA0008A1CA0008A1CA0008A1CA0008E4
:10005000A1CA0008A1CA0008A1CA0008A1CA0008D4
:10006000A1CA0008A1CA0008A1CA0008C1A20008CC
:1000700081A2000841A2000801A20008C1A1000855
:1000800081A1000841A10008A1CA0008A1CA000876
:10009000A1CA0008A1CA0008A1CA0008A1CA000894
:1000A000A1CA0008A1CA0008A1CA0008A1CA000884
:1000B00001A30008A1CA0008A1CA0008A1CA00083B
:1000C000A1CA0008A1CA0008A1CA0008A1CA000864
:1000D000A1CA0008A1890008318A0008A1CA000845
:1000E000A1CA0008A1CA0008A1CA0008A1CA000844
:1000F000A1CA0008A1CA0008A1CA000801A10008FD
:10010000A1CA0008A1CA0008A1CA0008A1CA000823
:10011000A1CA0008A1CA0008A1CA0008A1CA000813
:10012000C1A0000881A0000841A0000801A00008AB
:10013000C19F0008A1CA0008A1CA0008A1CA0008FE
:10014000A1CA0008A1CA0008A1CA0008A1CA0008E3
:10015000819F0008419F0008019F0008A1CA000874
:10016000A1CA0008A1CA0008A1CA0008A1CA0008C3
:10017000A1CA0008A1CA0008A1CA0008A1CA0008B3
:10018000A1CA0008A1CA0008A1CA0008A1CA0008A3
:10019000A1CA0008A1CA0008A1CA0008A1CA000893
:1001A000A1CA0008A1CA0008A1CA0008A1CA000883
:1001B000A1CA0008A1CA0008A1CA0008A1CA000873
:1001C00072B6234880F30988022080F31488BFF3B5
:1001D0006F8F0CF0ADFC08F0EBFF4FF055301D4970
:1001E0001D4A91423CBF41F8040BFAE71B49184AEB
:1001F00091423CBF41F8040BFAE71949194A1A4BDE
:100200009A423EBF51F8040B42F8040BF8E7002075
:100210001649174A91423CBF41F8040BFAE70CF02B
:1002200047FC0CF07DFC134C134DAC4203DA54F840
:10023000041B8847F9E706F0B3FC104C104DAC42A4
:1002400003DA54F8041B8847F9E70CF061BC00009E
:10025000000800200000002000040020000400200E
:1002600018030108000800200009002000090020F0
:10027000101D0020C0010008C0010008C0010008D6
:10028000C0010008000000000000000000000000A5
:100290002DE9F04FC1F80CD0C3689D46BDE8F08F42
:1002A0000CF04EFA0BF0CCFF002383F311882846A4
:1002B000A04700200CF094FB0BF0DAFF0CF050FA92
:1002C0000BF0FEFF0CF03CFA0BF0BAFF00DFFEE78C
:1002D00053B94AB9002908BF00281CBF4FF0FF31AD
:1002E0004FF0FF3000F07CB9ADF1080C6DE904CEA1
:1002F00000F006F8DDF804E0DDE9022304B0704701
:100300002DE9F0478C460D460446089E002B51D13E
:100310008A4217466DD9B2FA82FEBEF1000F0BD0A9
:10032000CEF1200C01FA0EF520FA0CFC02FA0EF7C1
:100330004CEA050C00FA0EF44FEA174A250CBCFBF8
:10034000FAF81FFA87F90AFB18CC45EA0C4508FBB6
:1003500009F3AB420AD9ED1908F1FF3280F023818D
:10036000AB4240F22081A8F102083D44ED1AA4B24C
:10037000B5FBFAF00AFB105544EA054400FB09F905
:10038000A14509D9E41900F1FF3380F00A81A145A4
:1003900040F2078102383C44A4EB090440EA0840DB
:1003A0000021002E61D024FA0EF400233460736023
:1003B000BDE8F0878B4207D9002E54D0002186E893
:1003C00021000846BDE8F087B3FA83F1002940F028
:1003D0008E80AB4202D3824200F2FA80841A65EB2F
:1003E00003050120AC46002E3FD086E81010BDE882
:1003F000F08712B90127B7FBF2F7B7FA87FEBEF113
:10040000000F34D1EB1B3A0C1FFA87FC0121B3FB20
:10041000F2F8250C02FB183345EA03450CFB08F300
:10042000AB4207D9ED1908F1FF3002D2AB4200F21E
:10043000D1808046ED1AA3B2B5FBF2F002FB105555
:1004400043EA05440CFB00FCA44507D9E41900F17C
:10045000FF3302D2A44500F2B8801846A4EB0C0486
:1004600040EA08409DE731463046BDE8F087CEF1CE
:10047000200405FA0EF307FA0EF720FA04F83A0CF6
:1004800025FA04F448EA0308B4FBF2F14FEA1845F0
:1004900002FB11441FFA87FC45EA044501FB0CF3FB
:1004A000AB4200FA0EF409D9ED1901F1FF3080F0EA
:1004B0008A80AB4240F2878002393D44EB1A1FFA32
:1004C00088F5B3FBF2F002FB103345EA034500FB6D
:1004D0000CF3AB4207D9ED1900F1FF386FD2AB42F4
:1004E0006DD902383D44EB1A40EA01418FE7C1F172
:1004F000200722FA07F88B4005FA01F448EA0303C3
:1005000020FA07FE4FEA134CFD404EEA040EB5FBFD
:10051000FCF94FEA1E440CFB19551FFA83F844EA14
:10052000054509FB08F4AC4202FA01F200FA01FAAF
:1005300008D9ED1809F1FF3043D2AC4241D9A9F1F5
:1005400002091D442D1B1FFA8EFEB5FBFCF00CFBAF
:1005500010554EEA054400FB08F8A04507D9E418F9
:1005600000F1FF3529D2A04527D902381C4440EAC2
:100570000940A4EB0804A0FB02894C45C6464D4641
:1005800015D312D056B1BAEB0E0364EB050404FA8E
:1005900007F7CB401F43CC40376074600021BDE8B3
:1005A000F0871846F8E69046E0E6C245EAD2B8EB96
:1005B000020E69EB03050138E4E72846D7E7404619
:1005C00091E78146BEE7014678E702383C4445E7BB
:1005D000084608E7A8F102083D442BE700000000A8
:1005E000704700BF00000000000000000000000095
:1005F00090F800F06DE9024520F007016FF0000C63
:1006000010F0070491F820F040F049804FF000040A
:100610006FF00700D1E9002391F840F000F10800E5
:1006200082FA4CF2A4FA8CF283FA4CF3A2FA8CF31D
:100630004BBBD1E9022382FA4CF200F10800A4FA84
:100640008CF283FA4CF3A2FA8CF3E3B9D1E90423D8
:1006500082FA4CF200F10800A4FA8CF283FA4CF30F
:10066000A2FA8CF37BB9D1E9062301F1200182FAC9
:100670004CF200F10800A4FA8CF283FA4CF3A2FACF
:100680008CF3002BC6D0002A04BF04301A4612BADD
:10069000B2FA82F2FDE8024500EBD2007047D1E9E0
:1006A000002304F00305C4F100004FEAC50514F06F
:1006B000040F91F840F00CFA05F562EA05021CBF40
:1006C00063EA050362464FF00004A9E7000000005A
:1006D0002DE98048B34BB44A9B69B44CDFF80493CE
:1006E000DFF8E8A2DFF800B39A6197B0B04BDBF80F
:1006F000100019691A691B69C0F38030C1F3002129
:1007000001EB4001C2F3802202EB4102DBF8101042
:10071000C3F3003303EB4203CD049BB202D5002B9D
:1007200000F06481052B00F22982DFE813F06301F9
:100730009400FA003C0024000600002301259D4897
:1007400084F8563084F8573089F800500EF080FA5B
:10075000DBF8103013F4805F94F8583000F0198201
:10076000002B00F08183012B00F09C834FF47A7002
:100770000CF066F9BAE7002301228F4884F856305E
:1007800084F8573089F800200EF062FA94F8593056
:10079000012B00F0118289480EF042FF4FF4FA60FD
:1007A0000CF04EF9A2E700230122854884F8563068
:1007B00084F8573089F800200EF04AFA99F8003092
:1007C000012BE8D82378062BE5D1A378062B03D09C
:1007D00094F87F30012BDED1012589F80050DBF839
:1007E0001030DB0400F1B485714B1B695F0400F12C
:1007F000C585744B1A69560600F1C0851B69D8057A
:1008000040F1BC85704A312315708AF808302023E6
:1008100030226E488AF800308AF801308AF80230B7
:100820008AF803308AF804308AF805308AF80630EE
:100830008AF809308AF80A308AF80B308AF80C30C6
:100840008AF80D308AF80E308AF80F308AF80720BF
:100850000EF0E6FEA2E7002301225D4884F8563040
:1008600084F8573089F800200EF0F2F999F800303A
:10087000012B90D82378062B8DD1A278062A03D09D
:1008800094F87F20012A86D1012589F80050DBF8F1
:100890001020D00400F12C85DBF81020510540F128
:1008A0002E874C4A1570424A1269570401F17F8124
:1008B000444A11694E0601F17A811269D50501F1A8
:1008C0007681454A01231370E078834200F08487E3
:1008D0001846202530238AF800508AF801508AF8FB
:1008E00002508AF803508AF804508AF805508AF8B2
:1008F00006508AF807300EF013FD8AF808003348D6
:100900008AF809508AF80A508AF80B508AF80C5075
:100910008AF80D508AF80E508AF80F500EF080FEBB
:100920003CE7002301222D4884F8563084F85730E4
:1009300089F800200EF08CF999F80030012B3FF671
:100940002AAF2378062B7FF426AFA278062A04D09C
:1009500094F87F20012A7FF41EAF012589F800500A
:10096000DBF81020D70400F1DC84DBF810205605FA
:1009700040F1FC86174A15700D4A1269500401F1C6
:100980004281104A1169490601F13D811269D2057F
:1009900001F13981124A012313706078834297D1A3
:1009A00000F0ABBF98160020B0F60008741C0020C1
:1009B000000C024080F700086CF70008CCF6000835
:1009C00030F7000800080240030900201009002049
:1009D000E0F6000820090020010900201CF70008AB
:1009E0000209002000090020000402400BF068F911
:1009F0000EF0D6F894F85900431E012B02D90428B2
:100A000040F0468299F80050002D40F0CD8094F8D7
:100A10008770002F00F022810EF082FC20268AF8D9
:100A2000000038468AF801608AF802608AF803609C
:100A30000EF076FC8AF8040094F888000EF070FC42
:100A40008AF8050094F858008AF806600EF068FCF1
:100A500094F856308AF80860012B8AF8070000F0F5
:100A6000608246234F228AF809208AF80A308AF8E1
:100A70000B3094F85730012B00F0428246234F226E
:100A80008AF80D208AF80E308AF80F302023C848E3
:100A90008AF80C300EF0DCF8202350228AF800305F
:100AA0008AF8013052238AF802208AF8033049225A
:100AB00043238AF804208AF8053045223A236079D6
:100AC0008AF807308AF806200EF02AFC23798AF883
:100AD0000800032B00F0B581022B00F0CF81012B21
:100AE00000F0E881002B00F0F8812023B0488AF85C
:100AF0000D308AF80E308AF80F300EF091FD94F820
:100B00005630002B00F0648194F87F30012B00F008
:100B10006881A84B1E78012E00F06581022E7FF4BB
:100B2000E5AD94F87E30012B94F8993000F00A82FC
:100B3000012B00F0168200233146032084F85C303C
:100B40000BF0FEFF08A908200EF03AFA41F28830B7
:100B50000BF076FF0EF094FA94F85830012B00F069
:100B6000C183944B18780EF07BFC94F85730012B1E
:100B700000F07A828F4A01231370B7E58E480EF099
:100B800067F88E480EF04CFD4FF4FA600BF058FFFA
:100B9000ACE5002B7FF4E7AD89480EF041FD40F64F
:100BA000B8300BF04DFFE1E5002384F8873084F87E
:100BB000883089F8003099E52378062B7FF4EBAD77
:100BC000A378062B04D094F87F30012B7FF4E3AD9B
:100BD0007C4B1B69590400F1DA817B4B1A69520680
:100BE00000F1D5811B69DF0500F1D181DBF8103000
:100BF0005E0501F14F82754B1B695D0401F1418275
:100C0000607920238AF800308AF801308AF80230AF
:100C10008AF803308AF804300EF082FB23798AF8D0
:100C20000500032B00F0F484022B00F0BA85012BA1
:100C300000F06D86002B00F0D98620235C488AF8EE
:100C40000A308AF80B308AF80C308AF80D308AF8AE
:100C50000E308AF80F300EF0E3FC9FE543228AF84D
:100C600000208AF8062055228AF8012052228AF8AC
:100C700002208AF8032045228AF804204E228AF8AE
:100C80000520E37E59228AF807203A228AF80820B4
:100C9000032B26D8DFE803F04D297102207F0EF0E8
:100CA0003FFB8AF80900607F0EF03AFB8AF80A00E1
:100CB000A07F0EF035FB2E238AF80B00E07F8AF828
:100CC0000C300EF02DFB8AF80D0094F820000EF089
:100CD00027FB8AF80E0094F821000EF021FB8AF819
:100CE0000F0033480DF0B4FFD6E6207F0EF018FB5E
:100CF0008AF80900607F0EF013FB8AF80A00A07FD3
:100D00000EF00EFB8AF80B00E07F0EF009FB8AF86C
:100D10000C0094F820000EF003FB2E238AF80D003F
:100D200094F821008AF80E300EF0FAFA8AF80F00D3
:100D3000D7E7207F0EF0F4FA8AF80900607F0EF002
:100D4000EFFA8AF80A00A07F0EF0EAFA8AF80B00A0
:100D5000E07F0EF0E5FA8AF80C0094F820000EF01F
:100D6000DFFA8AF80D0094F821000EF0D9FA20235A
:100D70008AF80E008AF80F30B3E7207F0EF0D0FA21
:100D80008AF80900607F0EF0CBFA8AF80A00A07F8B
:100D90000EF0C6FA8AF80B00E07F0EF0C1FA2E239F
:100DA0008AF80C008AF80D3094F820008FE700BF15
:100DB0001009002000080020BCF70008CCF600084D
:100DC000A8F70008000C0240000802400010024092
:100DD00044F620600BF034FE94F87F30012B7FF452
:100DE00098AE9A4A137094F87D3094F89810012BBD
:100DF00000F0EA80012900F0F680944A002311787F
:100E000084F85C3003200BF09BFE08A908200EF04C
:100E1000D7F841F288300BF013FE0EF031F994F858
:100E20005830012B00F0D082884B18780EF018FB58
:100E300094F85630012B00F0C681844A02231370C7
:100E400054E42E23A0798AF809300EF069FA8AF862
:100E50000A00E0790EF064FA8AF80B00207A0EF0AE
:100E60005FFA8AF80C0040E6794884F858500EF092
:100E7000D7FB40F6B8300BF0E3FD77E4A0790EF035
:100E80004FFA2E238AF809008AF80A30E079E1E760
:100E900070480DF0DDFE70480EF0C2FB64200BF0D0
:100EA000CFFD23E46A480EF0BBFB40F6B8300BF0F0
:100EB000C7FD5BE4A0790EF033FA8AF80900E07907
:100EC0000EF02EFA2E238AF80A00207A8AF80B30C8
:100ED0000EF026FA8AF80C0007E6A0790EF020FA48
:100EE0008AF80900E0790EF01BFA8AF80A00207AE5
:100EF0000EF016FA2E238AF80B008AF80C30F4E56F
:100F0000A0780EF00DFA8AF80D00E0780EF008FADD
:100F10008AF80E0094F829000EF002FA8AF80F0001
:100F2000B4E520780EF0FCF98AF8090060780EF03C
:100F3000F7F98AF80A0094F828000EF0F1F98AF817
:100F40000B0096E5012B7FF4F6AD314627200BF020
:100F5000F7FD0EF085FB002384F87E303B4B1E78B6
:100F6000E9E5A3780C2B00F08C84092B7FF4E3AD2A
:100F7000314608200BF0E4FD0EF072FB33490A22E3
:100F800000230E7884F8882084F89930D3E5334B19
:100F90001B6958043AD4324B1A69510636D41B697E
:100FA000DA0533D5DBF810305B0501F1E5802D4B18
:100FB0001B695F047FF524AEE379002B3FF420AE7C
:100FC000013BE37160791CE601297FF416AF27200D
:100FD0000BF0B6FD0EF044FB0A22002384F88720B4
:100FE00084F87D3009E723780C2B00F0D684092B98
:100FF0007FF403AF08200BF0A3FD0EF031FB0A22B3
:10100000002384F8872084F89830F6E6134B1B6998
:101010005E0400F1B880124B1A69550640F1B380A6
:101020001B69D80500F1AF80DBF81030590501F1DC
:1010300002810C4B1B695A047FF5E2ADA379002BAA
:101040003FF4DEAD013BA3716079DAE500080020D2
:1010500094F70008B8F60008CCF60008000C02402F
:101060000008024000100240CE4B032019780BF01C
:1010700067FD08A908200DF0A3FF41F288300BF0AE
:10108000DFFC0DF0FDFFA378062B00F0B981082BE3
:1010900000F0B68194F88830002B40F0B6819DF8BE
:1010A0002420082A7FF466AD9DF82560002E01F00B
:1010B000BA82022E01F0A482032E7FF45BADA378E6
:1010C000062B01F0B782082B7FF454ADB54B0220FC
:1010D00019780BF035FD0EF0C3FA20790DF000FA07
:1010E000A3796279E679217A03EB830303EB830327
:1010F0009B004FF47A7707FB02320A2313FB062387
:101100000B44B3FBF0F200FB123319461046019278
:10111000012202930DF0DCFAA24B1C2019780BF08F
:101120000FFD0EF09DFA94F88860022E40F0758154
:101130009C4B022019780BF003FD0EF091FA627BB4
:1011400022F00F02002301216273032284F895101C
:1011500084F86A3084F8693084F8683084F867303D
:1011600084F8663084F8653084F8783084F8773015
:1011700084F8763084F8753084F8743084F87330ED
:1011800084F88820F6E4884B1B695B047FF538AD52
:10119000864B1A6957063FF533AD1B69DE053FF5EF
:1011A0002FADDBF810305D0501F13C80804B1B69F1
:1011B00058047FF525AD607900283FF422AD013851
:1011C000C0B260711DE5774B032019780BF0B8FCB5
:1011D00008A908200DF0F4FE41F288300BF030FC35
:1011E0000DF04EFF2378062B00F02682082B00F02E
:1011F000238294F88730002B40F023829DF824202E
:10120000082A7FF41AAE9DF82560002E01F01A809E
:10121000022E03F01E80032E7FF40FAE2378062BE0
:1012200001F01880082B7FF408AE5E4B022019787D
:101230000BF086FC0EF014FA20790DF051F9A37929
:101240006279E679217A03EB830303EB83039B0046
:101250004FF47A7707FB02320A2313FB06230B4471
:10126000B3FBF0F200FB1233194610460192012243
:1012700002930DF02DFA4B4B1C2019780BF060FCFB
:101280000EF0EEF994F88760022E40F0E281454BB3
:10129000022019780BF054FC0EF0E2F9627B02F0A8
:1012A0000F02002301216273032284F8951084F851
:1012B000643084F8633084F8623084F8613084F8F4
:1012C000603084F85F3084F8713084F8703084F8CE
:1012D0006F3084F86E3084F86D3084F86C3084F8A8
:1012E0008720AAE50222082108A80CF019FF38E49B
:1012F000DBF81030DA0400F1AC82DBF81030DB04EC
:101300007FF54CAA2B4B1A7863789A427FF446AA51
:1013100029480EF085F941F288300BF091FBFFF778
:101320003DBADBF81030D90400F12783DBF8103028
:10133000DA047FF533AA214B1A78E3789A427FF4D6
:101340002DAA1D480EF06CF91C4B1B78E3708FE240
:10135000DBF81030DE0400F1EE82DBF81030D80448
:101360007FF51CAA164B1A7894F859309A427FF4EC
:1013700015AA14480EF054F9FFF710BA0A4B1B696E
:10138000590427D4094B1A69520623D51B69DF0576
:1013900020D40B49022232230A708AF80830FFF762
:1013A00036BA00BF00080020000C024000080240CE
:1013B000001002400109002008F70008020900207F
:1013C0000309002058F700080222082108A80CF0A1
:1013D000A7FE29E5D74B1B695E0400F10681D64BB9
:1013E0001A69550640F101811B69D80540F1FD805D
:1013F000D249032233230A708AF80830FFF707BA6C
:1014000094F88830002B00F005830A2B00F00B8540
:1014100094F88860022E3FF48BAE032E00F0E68134
:10142000042E00F01F83052E00F0D183072E00F05C
:101430001E84082E43F01480C14A0A23117884F8D0
:10144000883004200BF07CFB0FA910200DF0B8FDB4
:1014500041F288300BF0F4FA0DF012FE94F8583097
:10146000012B02F0F6870DF11F03002203F8012F74
:101470000DF12D018B42F9D110AA052312F8011F9D
:1014800001F0FD002C2805D016A81844013300F8FF
:10149000381CDBB20DF149018A42EFD19DF82B00D7
:1014A0009DF82A109DF825609DF829309DF8287038
:1014B0009DF827209DF8268000F00F0001F00F0115
:1014C000012E0490059103F00F0307F00F0702F0BF
:1014D0000F0208F00F0802F05B850693984B079205
:1014E00019780120002E40F0F0810BF029FB0EF05E
:1014F000B7F8079A9348069B42F2107101FB02F27B
:1015000000FB08284FF47A72642502FB078715FB5D
:101510000377BDF814300A2515FB0375049BED18FD
:1015200042F01287069505950495AE46AC46864B6B
:10153000864984F86A606F09A1FB0717A3FB0501C0
:10154000834884F868E0A0FB0508824884F869C0F5
:10155000A0FB05068048C908A0FB05209DF81020C7
:1015600084F86720A3FB01E2D20802EB8202FF09A4
:10157000A1EB420201EB8101A5EB4105A3FB07E1D1
:10158000C9084FEA5818B609400B01EB8101A7EBD7
:101590004107A3FB08E1A3FB06CEA3FB00C3DB08C6
:1015A00003EB8303C9084FEADE0EA0EB430001EB17
:1015B00081019DF8143084F866300EEB8E0EA8EB96
:1015C0004101A6EB4E0E9DF8183084F8653084F882
:1015D000772084F8785084F8737084F8761084F853
:1015E00075E084F87400FFF7C5BA524B1B695904C3
:1015F0007DD5514B1A69520679D41B69DF0576D423
:101600004E49042234230A708AF80830FFF7FFB8E5
:101610002E23A0798AF806300DF082FE8AF80700A2
:10162000E0790DF07DFE8AF80800207A0DF078FE52
:101630008AF80900FFF701BB94F88730002B00F00F
:1016400079820A2B00F05B8394F88760022E3FF4C6
:101650001EAE032E00F03282042E00F09382052E7F
:1016600000F09484072E00F06B84082E01F02E8089
:101670000B2E41F05181324B202019780BF060FA8B
:1016800008A90A200DF09CFC41F288300BF0D8F933
:101690000DF0F6FC94F85830012B01F0E4849DF82D
:1016A0002430692B01F0D384254B242019780BF0CA
:1016B00047FA0FA917200DF083FC41F288300BF098
:1016C000BFF90DF0DDFC94F85830012B01F0C48413
:1016D0009DF84030214A00200021672BC2E900011B
:1016E00001F0C0820B2384F88730FFF7A6BB94F883
:1016F00059000DF015FE8AF80800FFF788B8184A5F
:101700001269520457D5174A02231370094B1B69FB
:101710005E0400F1DD82084B1A69550600F1D8829B
:101720001B69D80500F1D4820F4A09231370FFF713
:10173000CBB800BF000C02400008024003090020A3
:1017400000080020A0860100CDCCCCCCC55A7C0A74
:101750001F85EB51D34D62105917B7D108090020EE
:10176000001002402009002001090020C84A126927
:10177000550440F1B080C74A02231370C64B1B6961
:10178000590400F13683C54B1A69520600F13183C2
:101790001B69DF0500F12D83C14A09231370FFF790
:1017A000FCB8A0790DF0BCFD2E238AF806008AF85B
:1017B0000730E07935E7B74A12789AB1012A3FF449
:1017C00072A8022AA2D0B74B1878E37883427FF43C
:1017D00080A80F2800F0DA860130B24BC0B2187032
:1017E000FFF777B8AF4B60781870EEE720790CF010
:1017F00077FE94F8923094F8912003EB830303EB87
:10180000830301469B0094F893004FF47A7505FB1F
:10181000023294F894500A2313FB00232B44012234
:10182000B3FBF1F001FB10310CF052FF9E4B1C207A
:1018300019780BF085F90DF013FF9C4B1B78002BEA
:1018400000F0F181022B00F0A68684F88860FFF793
:1018500091B9944B62781B789A4200F0408306203D
:1018600063700BF0CDFF924884F882500DF0D8FEE3
:1018700041F288300BF0E4F8864A00231370FEF73B
:101880008DBF314603200BF05BF908A908200DF04D
:1018900097FB41F288300BF0D3F80DF0F1FB9DF887
:1018A0002430082B7FF466A99DF82530022B3FF4E5
:1018B00061A90B210022042B84F8881084F8992058
:1018C0007FF458A9784B197830460BF039F90DF0B0
:1018D000C7FEFFF74FB96F4A1278A2B1012A3FF451
:1018E0004BA8022A3FF44AAF6D4B187863788342C5
:1018F0007EF4EFAF0F2800F06E860130684BC0B267
:101900001870FEF7E6BF664BE0781870EEE7A07936
:101910000DF006FD8AF80600E0790DF001FD2E239A
:101920008AF80700207A8AF808300DF0F9FC8AF866
:101930000900FFF782B95F4B1A7894F859309A4240
:1019400000F067825C480DF06BFE5A4B06201B7856
:1019500084F859300BF054FF564B1B78032B02F0E0
:10196000B3855A1E012A40F2BF83042B00F0BC83CA
:10197000012384F88230FEF711BF494BE2781B78CF
:101980009A4200F0B5810620E3700BF029FF484829
:1019900084F882500DF044FE6AE703200BF0D0F883
:1019A00008A908200DF00CFB41F288300BF048F834
:1019B0000DF066FB9DF82430082B7FF43EAA9DF8BD
:1019C0002530022B3FF439AA0B210022042B84F886
:1019D000871084F898207FF430AA334B19780220BE
:1019E0000BF0AEF80DF03CFEFFF727BAA0790DF032
:1019F00097FC8AF80600E0790DF092FC8AF807005F
:101A0000207A0DF08DFC2E238AF808008AF8093020
:101A1000FFF713B920790CF063FDA3796279E679B9
:101A2000217A03EB830303EB83039B004FF47A7764
:101A300007FB02320A2313FB06230B44B3FBF0F22D
:101A400000FB1233019219461046012202930CF05A
:101A50003FFE154B1C2019780BF072F80DF000FEBC
:101A6000FFF718BB94F82950012D00F08C84022D4B
:101A700000F01184002D00F0BE830C4B1B78002B6E
:101A800000F07F82042384F88830FFF773B800BF2A
:101A90000010024020090020000C02400008024013
:101AA000020900200109002000080020701C00200D
:101AB000F4F600080309002044F7000820790CF030
:101AC0000FFD94F88E3094F88D2003EB830303EB25
:101AD000830301469B0094F88F004FF47A7505FB51
:101AE000023294F890500A2313FB00232B44012266
:101AF000B3FBF1F001FB10310CF0EAFDAD4B1C2003
:101B000019780BF01DF80DF0ABFDAB4B1B78002BDB
:101B100000F01D81022B84F887607FF48EA90023DA
:101B2000062284F8873084F85A3084F828302270EE
:101B3000FFF783B920790CF0D3FCA3796279E679B9
:101B4000217A03EB830303EB83039B004FF47A7743
:101B500007FB02320A2313FB06230B44B3FBF0F20C
:101B600000FB1233019219461046012202930CF039
:101B7000AFFD904B1C2019780AF0E2FF0DF070FDCC
:101B8000FFF737BB94F82850012D00F0B384022DE5
:101B900000F03884002D02F06D83874B1B78002BFA
:101BA00000F01E84042384F88730FFF746B9834A87
:101BB0001269500414D4824A1169490610D412697A
:101BC000D2050DD57F4A02231370FEF77DBEA5789E
:101BD000092D00F02B82002384F88830FEF7CABF5D
:101BE000764A1269570400F19B81754A11694E06C5
:101BF00040F196811269D50500F19281714A032363
:101C00001370FEF761BE6D4A126957041FD46C4A07
:101C100011694E061BD41269D50518D56A4A0223EC
:101C20001370FEF7BABE634B187809F0D9FB614A0E
:101C30000423117884F8883007200AF081FF0DF022
:101C40000FFD40F6B8300AF0FBFEFEF793BF5B4A8B
:101C5000126950042CD45A4A1169490628D51269D0
:101C6000D20525D4584A03231370FEF796BE514A75
:101C70000823117884F8883021200AF061FF08A930
:101C80000B200DF09DF941F288300AF0D9FE0DF0DD
:101C9000F7F994F85830012B02F04F839DF8243067
:101CA000642B7EF467AF08A80BF0E2FDFEF762BF7D
:101CB000424A126957043AD4414A11694E0636D550
:101CC0001269D50533D5404A04231370FEF765BE6B
:101CD0003A4B1B6959044AD4394B1A69520646D407
:101CE0001B69DF0543D5374A0A231370FEF7ECBDA5
:101CF000DBF81030DA047EF551ADFFF722BB9DF81A
:101D00002430082B7FF499A89DF82530022B00F091
:101D1000DD840B22042B84F887207FF4ACAC254BA8
:101D2000022019780AF00CFF0DF09AFC8CE4234A8B
:101D3000126950042BD5224A1169490627D4126929
:101D4000D70524D4204A05231370FEF726BE194A6E
:101D50000423117884F8873007200AF0F1FE0DF093
:101D60007FFC40F6B8300AF06BFEFFF766B8134B05
:101D70001B695E042AD4124B1A69550626D51B69C5
:101D8000D80523D40F4A0B231370FEF79DBD0B4AD1
:101D90001269560440F19881094A11694D0600F113
:101DA00093811269D00540F18F81074906220A709C
:101DB000FEF7F3BD00080020701C0020000C02405C
:101DC000000802400109002002090020B64B1B69EF
:101DD000590400F1DA81B54B1A69520640F1D581F8
:101DE0001B69DB0540F1D181B14A0C231370FEF76A
:101DF0006BBDAD4B1B695E0461D4AC4B1A695506D3
:101E00005DD41B69D8055AD5AA4A0A231370FEF778
:101E1000C4BDDBF81030DB047EF5C0ACA6480DF085
:101E2000FFFBFEF7BBBC9DF82430082B7EF4A2AE6E
:101E30009DF82530022B3FF4FFAA0B22042B84F8D7
:101E4000882002F038839D4B202019780AF078FE14
:101E500008A90A200DF0B4F841F288300AF0F0FD2C
:101E60000DF00EF994F85830012B02F01D839DF807
:101E70002430692B02F01383904B242019780AF048
:101E80005FFE0FA917200DF09BF841F288300AF091
:101E9000D7FD0DF0F5F894F85830012B02F0F882D8
:101EA0009DF84030864A00200021672BC2E90001DE
:101EB00002F064830B2384F88830FEF75BBE7A4B14
:101EC0001B69590419D4794B1A69520615D51B6937
:101ED000DF0512D4774A0B231370FEF75EBDDBF8E3
:101EE0001030D9047EF55AAC76480DF099FB41F2DA
:101EF00088300AF0A5FDFEF751BC6B4B1B695E04F0
:101F000000F16E83694B1A69550640F169831B69BC
:101F1000D80540F16583674A0C231370FEF73DBD79
:101F2000614A1269500439D4604A1169490635D5AD
:101F30001269D20532D55E4A04231370FEF7C4BC81
:101F40005E4A0823117884F8873021200AF0F8FDD2
:101F500008A90B200DF034F841F288300AF070FD2A
:101F60000DF08EF894F85830012B02F0D1819DF8D5
:101F70002430642B7EF461AF08A80BF079FCFEF7E7
:101F80005CBF052384F88830FEF7F4BD2578092D61
:101F900024D0002384F88730FEF74FBF424A1269ED
:101FA00057040BD5414A11694E0607D41269D5056D
:101FB00004D43F4A05231370FEF786BC3A4A1269DF
:101FC000500423D5394A116949061FD41269D7052F
:101FD0001CD5374906220A70FEF776BC374B3046CF
:101FE00019780AF0ADFD0DF03BFB002307222846CF
:101FF00084F85A3084F82830257084F887200BF054
:10200000FFFB012384F88230FEF717BF264B1B69C4
:102010005E0423D5254B1A6955061FD51B69D805C3
:102020001CD4234A07231370FEF74EBC234B3046C3
:1020300019780AF085FD0DF013FB002307222846CE
:1020400084F85B3084F82930A57084F888200BF080
:10205000C7FB012384F88230FEF78CBD124B1B694D
:1020600059047FF5B0AB114B1A6952067FF5ABAB43
:102070001B69DF057FF5A7AB0D4A08231370FEF738
:1020800023BC237A002B3EF4BBAD013B2372607965
:10209000FEF7B7BD237A082B3EF6B2AD01332372AB
:1020A0006079FEF7AEBD00BF000C024000080240A0
:1020B000010900200209002058F70008000800204C
:1020C0000809002008F70008C84B1B6959046CD5A3
:1020D000C74B1A69520668D51B69DF0565D4C54A26
:1020E00007231370FEF759BCFF2396220FA97E2504
:1020F00001264FF04408252708208DF83E30049330
:102100008DF842208DF83C508DF843508DF83D609D
:102110008DF841608DF83F808DF840700CF0B0FE76
:10212000C8200AF08DFC0CF003FF41F288300AF061
:1021300087FC4FF0020E9522049B8DF83E300FA9CC
:1021400008208DF83DE08DF842208DF841608DF833
:102150003C508DF83F808DF840708DF843500CF066
:102160008FFEC8200AF06CFC0CF0E2FE41F28830D1
:102170000AF066FCFFF7FCBBE379082B3EF640ADA6
:102180000133E3716079FEF73CBD984B1B695F0436
:102190001ED5974B1A6956061AD41B69DD0517D44C
:1021A000954A0D231370FEF78FBB904B1B695E049D
:1021B0007FF59AAB8E4B1A6955067FF595AB1B6977
:1021C000D8057FF591AB8B4A08231370FEF7E5BB6A
:1021D000864B1B69580440F1C481854B1A6951062E
:1021E00000F1BF811B69DA0540F1BB81824A0E23F1
:1021F0001370FEF769BB814984F879507A22432332
:10220000097884F87A5084F87B201D2084F87C308B
:102210000AF096FC0DF024FA784B2846197806F05F
:102220000FFA2AE4607908283EF6EBAC0130C0B220
:102230006071FEF7E6BCA379082B9CBF0133A37144
:10224000FEF7DEBC23789A1F012A40F23283082B66
:102250007EF4F3AD012104200AF072FC0FA91020D6
:102260000CF0AEFE41F288300AF0EAFB0CF008FFF9
:102270009DF840306B2B7FF4E7A99DF84130012B8E
:102280003FF4E2A95D4B012019780AF059FC0DF0EA
:10229000E7F9FFF7D9B994F8923094F8317094F8CF
:1022A0009120574E94F8300094F8325003EB83039A
:1022B00042F2107101FB07F103EB8303C2EB4217FB
:1022C00006FB001002EB870294F8336099004FF48C
:1022D0007A7808FB050801EBC20194F8340094F801
:1022E000945094F89330642212FB068294F835607F
:1022F0004FF00A0818FB0028E27E20790D4403EB1A
:102300008303B04405EB430546469042ADB24FEA25
:10231000E67701F0838741F26087801AC0B20CF043
:10232000DFF8AAB20023064680FB0801CDE90223AC
:10233000FDF7CEFF0190A07B0CF0D2F8A6FB0023A6
:1023400002FB07F108FB03130546A2FB0801194431
:10235000DDE90223FDF7BCFF019B03FB150302939C
:102360000222029901980CF0B3F9244B1D20197830
:102370000AF0E6FB0DF074F9204B0220197806F004
:102380005FF9FFF77ABBA07B1D4E0CF0A9F894F81B
:10239000312094F83030014642F2107000FB02F018
:1023A00094F8322006FB030394F833004FF47A7656
:1023B00006FB0232642394F8346013FB002294F885
:1023C00035000A2313FB062303440222B3FBF1F07A
:1023D00001FB10310CF07CF9084B1D20197817E730
:1023E000052384F88730FEF728BD00BF000C0240AB
:1023F0000008024002090020010900200008002016
:10240000A086010094F82B7094F88E3094F88D20FB
:10241000A84E94F82A5094F82C1094F82D8042F28B
:10242000107000FB07F003EB830306FB050503EBCD
:102430008303C2EB42174FF47A7606FB015502EB99
:102440008702980094F82E6094F8903094F88F707A
:10245000642111FB085100EBC20094F82F504FF09B
:102460000A0818FB06180344E17E207907EB87026F
:10247000A84403EB4203464688429DB24FEAE67702
:1024800001F0908641F26D86401AC0B20CF028F837
:10249000AAB20023064680FB0801CDE90223FDF71E
:1024A00017FF0190A07B0CF01BF8A6FB002302FB9A
:1024B00007F108FB03130546A2FB08011944DDE9F7
:1024C0000223FDF705FF019B03FB15030293022284
:1024D000029901980CF0FCF8774B1D2019780AF04E
:1024E0002FFB0DF0BDF8744B0220197806F0A8F808
:1024F000FFF753BBA07B6F4E0BF0F2FF94F82B203D
:1025000094F82A30014642F2107000FB02F094F871
:102510002C2006FB030394F82D004FF47A7606FB7B
:10252000023294F82E60642313FB002294F82F00EB
:102530000A2313FB062303440222B3FBF1F001FB41
:1025400010310CF0C5F85C4B1D2019780AF0F8FA30
:102550000DF086F8584B2846197806F071F8FFF709
:102560001CBB564B1B695B0440F1C381544B1A6979
:10257000570640F1BE811B69DE0500F1BA81E378A0
:10258000504A0F20834210707EF4A3A94D4B0020C7
:102590001870FEF79EB90023062284F8883084F86C
:1025A0005B3084F82930A270FEF7E4BA434B1B6914
:1025B000590440F18B81424B1A69520640F18681E1
:1025C0001B69DF0500F1828163783F4A0F20834257
:1025D00010707EF47EA93C4B00201870FEF779B98C
:1025E000364B1B69590447D5354B1A69520643D4FB
:1025F0001B69DF0540D4344A0D231370FEF7CDB9B3
:1026000094F85920012AA27801F08986062A01F05F
:102610006B86082A7EF4AEAA09220223A27084F8EF
:102620008830FEF785BDA3789A1F012A34D9082B7C
:102630007EF4A0AA204B042019780AF081FA0FA991
:1026400010200CF0BDFC41F288300AF0F9F90CF0D2
:1026500017FD9DF840306B2B7EF4DAAE9DF84130CB
:10266000012B3EF4D5AE144B012019780AF068FA1C
:102670000CF0F6FFFEF7CCBE104B1B695E0495D53F
:102680000F4B1A69550691D41B69D8058ED50E4A91
:102690000E231370FEF781B9074B022019780AF058
:1026A0004FFA0CF0DDFF062384F88860A370FEF774
:1026B00061BA00BFA086010000080020000C0240A3
:1026C000000802400109002002090020D54A0A231F
:1026D000117884F8873004200AF032FA0FA910200C
:1026E0000CF06EFC41F288300AF0AAF90CF0C8FC3C
:1026F00094F85830012B00F024810DF11F030022C3
:1027000003F8012F0DF12D019942F9D110AA0523EB
:1027100012F8011F01F0FD002C2805D016A818445E
:10272000013300F8381CDBB20DF149019142EFD1C1
:102730009DF82B009DF82A109DF825609DF82970C2
:102740009DF828809DF827209DF8263000F00F0086
:1027500001F00F01012E0490059107F00F0708F01A
:102760000F0802F00F0203F00F0300F081810793BE
:10277000AC4B069219780120002E7FF431A90AF0A3
:10278000DFF90CF06DFF94F88D1094F88E00069A26
:10279000A54D079BC1EB411E01EB8E0100EB8000B4
:1027A00042F2107E0EFB02F200EB800005FB0323D9
:1027B000800094F8905094F88F204FF47A7E00EBCC
:1027C000C1010EFB083802EB82026B1803EB4203D7
:1027D0004FF0640EBDF814201EFB078E0A2515FB72
:1027E00002E5049AAD189BB240F0B18006950495BD
:1027F0000595AE46AC468D4B8D4984F864606F09F3
:10280000A1FB0717A3FB05018A4884F862E0A0FB3F
:102810000508894884F863C0A0FB05068748C908F5
:10282000A0FB05209DF8142084F86120A3FB01E2A1
:10283000D20802EB8202FF09A1EB420201EB810107
:10284000A5EB4105A3FB07E1C9084FEA5818B609F3
:10285000400B01EB8101A7EB4107A3FB08E1A3FBC0
:1028600006CEA3FB00C3DB0803EB8303C9084FEAD2
:10287000DE0EA0EB430001EB81019DF8103084F8DF
:1028800060300EEB8E0EA8EB4101A6EB4E0E9DF8CC
:10289000183084F85F3084F8702084F8715084F820
:1028A0006C7084F86F1084F86EE084F86D00FEF7A9
:1028B000C4BA5C4B022019780AF042F90CF0D0FE41
:1028C000062384F887602370FEF7B7BA5C4B1B6958
:1028D0005E047FF509A85B4B1A6955067FF504A8CD
:1028E0001B69D8057FF500A8574A00231370FEF72F
:1028F00054B8534B1B695D047EF565AF514B1A69A3
:1029000050067EF560AF1B69D9057EF55CAF4F4A76
:1029100000231370FDF7D8BF0C2E7EF48EAA414B16
:1029200018780CF015F894F85950012D00F09080AB
:10293000012384F8823084F883300B232370FFF75F
:1029400028BB022210210FA80BF0EAFBD5E6A07BE2
:1029500005FB03F60BF0C4FD074620790BF0C0FD24
:1029600000FB07F7E07E0BF0BBFD304A304997FBD8
:10297000F0F3B6FBF3F34FEA531EA1FB0E1EA2FBCE
:1029800003102C49A1FB03172B49A1FB031C2B4966
:102990004FEADE1EA1FB0361C008A2FB0E86490BB5
:1029A0000491F608A2FB008105967F09C908A2FBE5
:1029B000076801EB8101059E05914FEAD80804994B
:1029C0004FEA9C1C08EB880806EB8606CDF81880B9
:1029D000AEEB460EA2FB0C86A2FB01280599F2087D
:1029E000A0EB410100EB8000A3EB4003069E04989E
:1029F0004FEAD80802EB8202ACEB420208EB8808EF
:102A0000A7EB4607A0EB4808DEB2D3B25FFA8EF020
:102A100005935FFA88F306905FFA81FC5FFA87FE00
:102A20000493E8E600080020A0860100CDCCCCCCC1
:102A3000C55A7C0A1F85EB51D34D62105917B7D187
:102A4000000C024000080240020900200109002099
:102A500006200AF0D5FE94F8593084F88250012BF4
:102A600084F883507FF469AF06232370FFF791BA8F
:102A700094F88D1094F88E00744EC1EB411E01EB5A
:102A80008E0100EB800042F2107E0EFB02F200EBA2
:102A9000800006FB0323800094F8906094F88F2058
:102AA00000EBC10170184FF47A7E02EB82020EFB3C
:102AB000083300EB42024FF0640EBDF814001EFB19
:102AC00007330A2111FB0031049BC91892B200F0B0
:102AD000B780B1FBF2F25E485E4B4FEA521EA3FB99
:102AE0000E3EA0FB02535C4DA5FB02565B4DA5FBC1
:102AF000025C5B4DA5FB0275DB086D0B4FEADE1E29
:102B0000760904962E46A0FB0E57A0FB0385ED0820
:102B10000595049D0696A846A0FB0858059DFF084C
:102B200005EB850505954FEA9C1C07EB8707AEEB87
:102B3000470EA0FB0C57A0FB0650059EA3EB4605D5
:102B400003EB8303A2EB43034FEAD808049AFF0880
:102B500007EB870708EB8808A2EB4806C008ACEB38
:102B60004702069F00EB8000A7EB40005FFA85FC60
:102B7000DDB2D3B25FFA8EF70493C3B206975FFA61
:102B800086FE0593324B334884F871504F09A0FB01
:102B90000707A3FB0150304D84F86FE0A5FB0158F7
:102BA0002E4D84F870C0A5FB01562D4DC008A5FB25
:102BB00001259DF8102084F86E20A3FB00E2D208C6
:102BC00002EB8202FF09A0EB420200EB8000A1EBC6
:102BD0004000A3FB07E1C9084FEA5818B6096D0B7E
:102BE00001EB8101A7EB4107A3FB08E1A3FB06CEA4
:102BF000A3FB05C3DB0803EB8303C9084FEADE0E22
:102C0000A5EB430501EB81019DF8143084F86D308C
:102C10000EEB8E0EA8EB4101A6EB4E0E9DF8183080
:102C200084F86C3084F8632084F8640084F85F7062
:102C300084F8621084F861E084F86050FEF7FDB813
:102C40000691059104918E468C469BE7A086010073
:102C5000CDCCCCCCC55A7C0A1F85EB51D34D62102C
:102C60005917B7D19DF84A307E2B01F088809DF826
:102C70004B307E2B00F0CE849DF84C307E2B00F044
:102C8000A4869DF84D307E2B00F0ED829DF84E30ED
:102C90007E2B00F08F879DF84F307E2B00F0D6837F
:102CA0009DF850307E2B00F0AB859DF851307E2B87
:102CB00000F0F6819DF852307E2B7EF413AD022297
:102CC00017210FA80BF02CFB0DF11F03002203F8B6
:102CD000012F0DF135019942F9D10523194616AAA4
:102CE00050181A44013112F81C2C00F8382C7D2A97
:102CF000C9B20BD10133DBB216AA1A4412F81C2C4C
:102D000002F00F0242F0700200F8382C0133DBB2FF
:102D1000152BE4D908A80BF0F3FBD64BD3E900231D
:102D200052EA030101F0FE80D34BD449D44E087817
:102D3000A3FB02184FEAD8085109A6FB0161A3FBC7
:102D4000086CD04EA6FB026ECF4E4FEADC0CA6FB01
:102D50000267C909CD4E04910CEB8C01A6FB02C69B
:102D6000A8EB410C049984F813C008EB8808A2EB87
:102D70004802A3FB018C4FEADC0C4FEA5E1E0CEB11
:102D80008C0CA1EB4C01A3FB0E8C4FEADC0CBF09B1
:102D9000760B0CEB8C0CAEEB4C0EA3FB078CA3FB61
:102DA00006834FEADC0CDB080CEB8C0C03EB830393
:102DB000A6EB4303A7EB4C0C22750C22E1732374A2
:102DC00084F8872084F812E084F811C00CF0B8F978
:102DD00094F88E3094F88D6094F8902094F88F10C9
:102DE000A07B03EB8303C6EB461703EB830306EBE1
:102DF00087069B0003EBC6031A4401EB81019D4B40
:102E000002EB410292B21E68596892B2A6FB0267B9
:102E100001FB0277002801F06F800BF061FB804618
:102E200020790BF05DFB9A4B00FB08F083FB00233D
:102E3000C217C2EB233230463946D317FDF748FAA2
:102E4000E37EC3F10408B8F1000F06460F4618DD13
:102E5000304639460A220023FDF73AFA30460492FA
:102E6000394600230A22FDF733FA049B0135042B6F
:102E700006460F46EDB202D9461C41F10007454512
:102E8000E6DB7D4B7D4AA3FB061C7D491078720969
:102E9000A1FB02127B494FEADC0CA1FB061EA3FB3F
:102EA0000C187949D209A1FB0615784904924FEA1A
:102EB000D802A1FB068102EB8208ACEB4808049A19
:102EC00084F820800CEB8C0CA6EB4C0C84F821C011
:102ED000A3FB028C4FEADC0C4FEA5E1E0CEB8C0C61
:102EE000A2EB4C02A3FB0E8C4FEADC0C490BAD09A4
:102EF0000CEB8C0CAEEB4C0EA3FB058CA3FB0183FF
:102F00004FEADC0CDB080CEB8C0C03EB8303A5EB2A
:102F10004C0CA1EB430384F81FE084F81EC0227719
:102F2000637709F015F894F847505A4A94F8461018
:102F3000594B94F8480002FB05F2584D03FB012160
:102F400094F8493094F84A2005FB001142F21070C1
:102F500000FB03134FF47A7594F84B1094F84C006F
:102F600005FB0232642313FB012294F84D10414DFE
:102F70000A2313FB00230B44F61847EBE3770022E8
:102F80000023C5E90023304639460A220023FDF715
:102F90009FF9304684F84D2039460A220023FDF778
:102FA00097F90A220023FDF793F9304684F84C2064
:102FB000394664220023FDF78BF90A220023FDF72E
:102FC00087F9304684F84B2039464FF47A72002353
:102FD000FDF77EF90A220023FDF77AF9304684F8DE
:102FE0004A20394642F210720023FDF771F90A2295
:102FF0000023FDF76DF9304684F849203946274A09
:103000000023FDF765F90A220023FDF761F9304638
:1030100084F8482039461F4A0023FDF759F90A224F
:103020000023FDF755F9304684F8472039461A4AFF
:103030000023FDF74DF90A220023FDF749F90F4B54
:1030400084F84620187808F0B3FEFDF7F6BE08A80D
:103050000AF04EFCFEF728BB02220F210FA80BF04E
:103060005FF8FEF735BB02220A2108A80BF058F8DA
:10307000FEF715BB08090020CDCCCCCC0008002001
:10308000C55A7C0A1F85EB51D34D62105917B7D131
:10309000AD8BDB6840420F0080969800A08601004F
:1030A000022216210FA80BF03BF90DF11F0300229D
:1030B00003F8012F0DA99942FAD10523194616AA42
:1030C00050181A44013112F81C2C00F8382C7D2AB3
:1030D000C9B20BD10133DBB216AA1A4412F81C2C68
:1030E00002F00F0242F0700200F8382C0133DBB21C
:1030F000142BE4D908A80BF003FACC4BD3E9002336
:1031000052EA030100F00E87C94BCA49CA4E08783B
:10311000A3FB02184FEAD8085109A6FB0161A3FBE3
:10312000086CC64EA6FB026EC54E4FEADC0CA6FB31
:103130000267C909C34E04910CEB8C01A6FB02C6C1
:10314000A8EB410C049984F813C008EB8808A2EBA3
:103150004802A3FB018C4FEADC0C4FEA5E1E0CEB2D
:103160008C0CA1EB4C01A3FB0E8C4FEADC0CBF09CD
:10317000760B0CEB8C0CAEEB4C0EA3FB078CA3FB7D
:1031800006834FEADC0CDB080CEB8C0C03EB8303AF
:10319000A6EB4303A7EB4C0C22750C22E1732374BE
:1031A00084F8872084F812E084F811C00BF0C8FF7F
:1031B00094F88E3094F88D6094F8902094F88F10E5
:1031C000A07B03EB8303C6EB461703EB830306EBFD
:1031D00087069B0003EBC6031A4401EB8101934B66
:1031E00002EB410292B21E68596892B2A6FB0267D6
:1031F00001FB0277002800F07F860BF071F9804612
:1032000020790BF06DF9904B00FB08F083FB002355
:10321000C217C2EB233230463946D317FDF758F8B0
:10322000E37EC3F10408B8F1000F06460F467FF7AE
:1032300028AE304639460A220023FDF749F83046C9
:103240000492394600230A22FDF742F8049B013517
:10325000042B06460F46EDB202D9461C41F1000789
:10326000A845E6DC0DE6022212210FA80BF058F863
:103270000DF11F03002203F8012F0CA99942FAD186
:103280000523194616AA50181A44013112F81C2CAD
:1032900000F8382C7D2AC9B20BD10133DBB216AA53
:1032A0001A4412F81C2C02F00F0242F0700200F8CF
:1032B000382C0133DBB2102BE4D908A80BF020F92D
:1032C0005A4BD3E9002352EA030100F02B86584BF6
:1032D0005849594E0878A3FB02184FEAD8085109FB
:1032E000A6FB0161A3FB086C544EA6FB026E544E74
:1032F0004FEADC0CA6FB0267C909524E04910CEBA5
:103300008C01A6FB02C6A8EB410C049984F813C0FB
:1033100008EB8808A2EB4802A3FB018C4FEADC0C07
:103320004FEA5E1E0CEB8C0CA1EB4C01A3FB0E8C48
:103330004FEADC0CBF09760B0CEB8C0CAEEB4C0EA1
:10334000A3FB078CA3FB06834FEADC0CDB080CEB2A
:103350008C0C03EB8303A6EB4303A7EB4C0C227509
:103360000C22E173237484F8872084F812E084F837
:1033700011C00BF0E5FE94F88E3094F88D6094F84F
:10338000902094F88F10A07B03EB8303C6EB4617C5
:1033900003EB830306EB87069B0003EBC6031A448B
:1033A00001EB8101214B02EB410292B21E68596888
:1033B00092B2A6FB026701FB0277002800F09C8511
:1033C0000BF08EF8804620790BF08AF81E4B00FB3C
:1033D00008F083FB0023C217C2EB23323046394684
:1033E000D317FCF775FFE37EC3F10408B8F1000FB3
:1033F00006460F467FF745AD304639460A22002380
:10340000FCF766FF30460492394600230A22FCF797
:103410005FFF049B0135042B06460F46EDB202D92F
:10342000461C41F100074545E6DB2AE50809002076
:10343000CDCCCCCC00080020C55A7C0A1F85EB51AE
:10344000D34D62105917B7D1AD8BDB68022214211E
:103450000FA80AF065FF0DF11F03002203F8012FEA
:103460000DF132019942F9D10523194616AA5018D7
:103470001A44013112F81C2C00F8382C7D2AC9B2EC
:103480000BD10133DBB216AA1A4412F81C2C02F03D
:103490000F0242F0700200F8382C0133DBB2122B1D
:1034A000E4D908A80BF02CF8CD4BD3E9002352EA5D
:1034B000030100F03785CB4BCB49CC4E0878A3FBFA
:1034C00002184FEAD8085109A6FB0161A3FB086C5A
:1034D000C74EA6FB026EC74E4FEADC0CA6FB026786
:1034E000C909C54E04910CEB8C01A6FB02C6A8EBE2
:1034F000410C049984F813C008EB8808A2EB480239
:10350000A3FB018C4FEADC0C4FEA5E1E0CEB8C0C2B
:10351000A1EB4C01A3FB0E8C4FEADC0CBF09760B30
:103520000CEB8C0CAEEB4C0EA3FB078CA3FB0683C1
:103530004FEADC0CDB080CEB8C0C03EB8303A6EBF3
:103540004303A7EB4C0C22750C22E173237484F81F
:10355000872084F812E084F811C00BF0F1FD94F894
:103560008E3094F88D6094F8902094F88F10A07BA2
:1035700003EB8303C6EB461703EB830306EB8706D7
:103580009B0003EBC6031A4401EB8101944B02EB51
:10359000410292B21E68596892B2A6FB026701FB13
:1035A0000277002800F0A8840AF09AFF804620796C
:1035B0000AF096FF914B00FB08F083FB0023C21733
:1035C000C2EB233230463946D317FCF781FEE37E47
:1035D000C3F10408B8F1000F06460F467FF751AC5F
:1035E000304639460A220023FCF772FE3046049228
:1035F000394600230A22FCF76BFE049B0135042B9D
:1036000006460F46EDB202D9461C41F10007A84517
:10361000E6DC36E4022210210FA80AF081FE0DF14B
:103620001F03002203F8012F0DF12E019942F9D159
:103630000523194616AA50181A44013112F81C2CF9
:1036400000F8382C7D2AC9B20BD10133DBB216AA9F
:103650001A4412F81C2C02F00F0242F0700200F81B
:10366000382C0133DBB20E2BE4D908A80AF048FF4E
:103670005B4BD3E9002352EA030100F05384594B1A
:1036800059495A4E0878A3FB02184FEAD808510945
:10369000A6FB0161A3FB086C554EA6FB026E554EBE
:1036A0004FEADC0CA6FB0267C909534E04910CEBF0
:1036B0008C01A6FB02C6A8EB410C049984F813C048
:1036C00008EB8808A2EB4802A3FB018C4FEADC0C54
:1036D0004FEA5E1E0CEB8C0CA1EB4C01A3FB0E8C95
:1036E0004FEADC0CBF09760B0CEB8C0CAEEB4C0EEE
:1036F000A3FB078CA3FB06834FEADC0CDB080CEB77
:103700008C0C03EB8303A6EB4303A7EB4C0C227555
:103710000C22E173237484F8872084F812E084F883
:1037200011C00BF00DFD94F88E3094F88D6094F874
:10373000902094F88F10A07B03EB8303C6EB461711
:1037400003EB830306EB87069B0003EBC6031A44D7
:1037500001EB8101224B02EB410292B21E685968D3
:1037600092B2A6FB026701FB0277002800F0C48337
:103770000AF0B6FE804620790AF0B2FE1F4B00FB2D
:1037800008F083FB0023C217C2EB233230463946D0
:10379000D317FCF79DFDE37EC3F10408B8F1000FD9
:1037A00006460F467FF76DAB304639460A220023A6
:1037B000FCF78EFD30460492394600230A22FCF7BE
:1037C00087FD049B0135042B06460F46EDB202D956
:1037D000461C41F100074545E6DBFFF752BB00BF41
:1037E00008090020CDCCCCCC00080020C55A7C0AAA
:1037F0001F85EB51D34D62105917B7D1AD8BDB68E4
:10380000022215210FA80AF08BFD0DF11F030022E3
:1038100003F8012F0DF133019942F9D1052319461F
:1038200016AA50181A44013112F81C2C00F8382C32
:103830007D2AC9B20BD10133DBB216AA1A4412F8A1
:103840001C2C02F00F0242F0700200F8382C0133F9
:10385000DBB2132BE4D908A80AF052FECD4BD3E912
:10386000002352EA030100F05D83CB4BCB49CC4EE1
:103870000878A3FB02184FEAD8085109A6FB01619A
:10388000A3FB086CC74EA6FB026EC74E4FEADC0CCA
:10389000A6FB0267C909C54E04910CEB8C01A6FB7F
:1038A00002C6A8EB410C049984F813C008EB880801
:1038B000A2EB4802A3FB018C4FEADC0C4FEA5E1E30
:1038C0000CEB8C0CA1EB4C01A3FB0E8C4FEADC0C37
:1038D000BF09760B0CEB8C0CAEEB4C0EA3FB078CEC
:1038E000A3FB06834FEADC0CDB080CEB8C0C03EB30
:1038F0008303A6EB4303A7EB4C0C22750C22E17368
:10390000237484F8872084F812E084F811C00BF047
:1039100017FC94F88E3094F88D6094F8902094F809
:103920008F10A07B03EB8303C6EB461703EB8303E7
:1039300006EB87069B0003EBC6031A4401EB8101EB
:10394000944B02EB410292B21E68596892B2A6FBF8
:10395000026701FB0277002800F0CE820AF0C0FD6A
:10396000804620790AF0BCFD914B00FB08F083FBF8
:103970000023C217C2EB233230463946D317FCF777
:10398000A7FCE37EC3F10408B8F1000F06460F461A
:103990007FF777AA304639460A220023FCF798FCC5
:1039A00030460492394600230A22FCF791FC049B1E
:1039B0000135042B06460F46EDB202D9461C41F1F3
:1039C0000007A845E6DCFFF75CBA022211210FA828
:1039D0000AF0A6FC0DF11F03002203F8012F0DF1E0
:1039E0002F018B42F9D10523194616AA50181A4403
:1039F000013112F81C2C00F8382C7D2AC9B20BD1E9
:103A00000133DBB216AA1A4412F81C2C02F00F0282
:103A100042F0700200F8382C0133DBB20F2BE4D9EE
:103A200008A80AF06DFD5B4BD3E9002352EA0301BD
:103A300000F07882584B5949594E0878A3FB021878
:103A40004FEAD8085109A6FB0161A3FB086C554E4B
:103A5000A6FB026E544E4FEADC0CA6FB0267C909B6
:103A6000524E04910CEB8C01A6FB02C6A8EB410C54
:103A7000049984F813C008EB8808A2EB4802A3FB62
:103A8000018C4FEADC0C4FEA5E1E0CEB8C0CA1EBB8
:103A90004C01A3FB0E8C4FEADC0CBF09760B0CEB40
:103AA0008C0CAEEB4C0EA3FB078CA3FB06834FEAFA
:103AB000DC0CDB080CEB8C0C03EB8303A6EB430361
:103AC000A7EB4C0C22750C22E173237484F8872039
:103AD00084F812E084F811C00BF032FB94F88E30B9
:103AE00094F88D6094F8902094F88F10A07B03EBED
:103AF0008303C6EB461703EB830306EB87069B00A5
:103B000003EBC6031A4401EB8101224B02EB410295
:103B100092B21E68596892B2A6FB026701FB027757
:103B2000002800F0E9810AF0DBFC804620790AF0E9
:103B3000D7FC1F4B00FB08F083FB0023C217C2EB2E
:103B4000233230463946D317FCF7C2FBE37EC3F17C
:103B50000408B8F1000F06460F467FF792A93046D9
:103B600039460A220023FCF7B3FB3046049239465B
:103B700000230A22FCF7ACFB049B0135042B06460C
:103B80000F46EDB202D9461C41F100074545E6DB80
:103B9000FFF777B908090020CDCCCCCC0008002075
:103BA000C55A7C0A1F85EB51D34D62105917B7D106
:103BB000AD8BDB68022213210FA80AF0B1FB0DF1D7
:103BC0001F03002203F8012F0DF131018B42F9D1BF
:103BD0000523194616AA50181A44013112F81C2C54
:103BE00000F8382C7D2AC9B20BD10133DBB216AAFA
:103BF0001A4412F81C2C02F00F0242F0700200F876
:103C0000382C0133DBB2112BE4D908A80AF078FC78
:103C1000D74BD3E9002352EA030100F08381D54B4F
:103C2000D549D64E0878A3FB02184FEAD8085109A7
:103C3000A6FB0161A3FB086CD14EA6FB026ED14E20
:103C40004FEADC0CA6FB0267C909CF4E04910CEBCE
:103C50008C01A6FB02C6A8EB410C049984F813C0A2
:103C600008EB8808A2EB4802A3FB018C4FEADC0CAE
:103C70004FEA5E1E0CEB8C0CA1EB4C01A3FB0E8CEF
:103C80004FEADC0CBF09760B0CEB8C0CAEEB4C0E48
:103C9000A3FB078CA3FB06834FEADC0CDB080CEBD1
:103CA0008C0C03EB8303A6EB4303A7EB4C0C2275B0
:103CB0000C22E173237484F8872084F812E084F8DE
:103CC00011C00BF03DFA94F88E3094F88D6094F8A2
:103CD000902094F88F10A07B03EB8303C6EB46176C
:103CE00003EB830306EB87069B0003EBC6031A4432
:103CF00001EB81019E4B02EB410292B21E685968B2
:103D000092B2A6FB026701FB0277002800F0F48064
:103D10000AF0E6FB804620790AF0E2FB9B4B00FBB1
:103D200008F083FB0023C217C2EB2332304639462A
:103D3000D317FCF7CDFAE37EC3F10408B8F1000F06
:103D400006460F467FF79DA8304639460A220023D3
:103D5000FCF7BEFA30460492394600230A22FCF7EB
:103D6000B7FA049B0135042B06460F46EDB202D983
:103D7000461C41F100074545E6DBFFF782B8022209
:103D80000F210FA80AF0CCFA0FA80AF0B9FB784B64
:103D9000D3E9002352EA030100F0C480754B764951
:103DA000764E0878A3FB02184FEAD8085109A6FB03
:103DB0000161A3FB086C724EA6FB026E714E4FEAC6
:103DC000DC0CA6FB0267C9096F4E04910CEB8C0159
:103DD000A6FB02C6A8EB410C049984F813C008EBBB
:103DE0008808A2EB4802A3FB018C4FEADC0C4FEAE7
:103DF0005E1E0CEB8C0CA1EB4C01A3FB0E8C4FEA6E
:103E0000DC0CBF09760B0CEB8C0CAEEB4C0EA3FB61
:103E1000078CA3FB06834FEADC0CDB080CEB8C0C55
:103E200003EB8303A6EB4303A7EB4C0C22750C2298
:103E3000E173237484F8872084F812E084F811C0B9
:103E40000BF07EF994F88E3094F88D6094F8902001
:103E500094F88F10A07B03EB8303C6EB461703EBAC
:103E6000830306EB87069B0003EBC6031A4401EBB2
:103E700081013F4B02EB410292B21E68596892B237
:103E8000A6FB026701FB0277B0B30AF029FB80466C
:103E900020790AF025FB3D4B00FB08F083FB002353
:103EA000C217C2EB233230463946D317FCF710FA5B
:103EB000E37EC3F10408B8F1000F06460F467EF713
:103EC000E0AF304639460A220023FCF701FA3046BB
:103ED0000492394600230A22FCF7FAF9049B0135C3
:103EE000042B06460F46EDB202D9461C41F10007ED
:103EF0004545E6DBFEF7C5BF0AF0F2FA0546207934
:103F00000AF0EEFA00FB05F5E07E0AF0E9FA394620
:103F100095FBF0F23046D317FCF7DAF906460F4668
:103F2000FEF7AFBF144B18780AF012FD06230025E8
:103F3000184623702575E574A57465742574E573BA
:103F400084F8215084F82050E577A57765772577A8
:103F500009F056FC084A84F887500123117884F848
:103F60008230022008F0ECFD0BF07AFBFCF765BF15
:103F700008090020CDCCCCCC00080020C55A7C0A12
:103F80001F85EB51D34D62105917B7D1AD8BDB684C
:103F900094F8911094F89200D64EC1EB411E01EBBB
:103FA0008E0100EB800042F2107E0EFB02F200EB6D
:103FB000800006FB0828800094F8946094F8932011
:103FC0004FF47A7E00EBC10131440EFB078802EB0F
:103FD0008206642717FB038701EB4603BDF8141024
:103FE0000A2212FB0172049952189BB200F0B380AE
:103FF000B2FBF3F3C049C1484FEA531EA0FB0E0EBB
:10400000A1FB0305BE48A0FB0306BE48A0FB030CB2
:10401000BD484FEADE1EA0FB0370A1FB0E87FF0820
:10402000ED084FEA9C1C400B07EB870704950590B1
:10403000AEEB470EA1FB0580A1FB0C570697059F31
:104040007609A1FB0658A1FB0757C008049D0699F5
:1040500000EB8000A5EB400005EB8505A3EB4503D5
:10406000C908059DFF0801EB810107EB8707ACEB51
:104070004101A5EB47074FEAD8085FFA8EF508EB38
:1040800088080695DDB2CBB2A6EB48060593FBB2D5
:104090005FFA80FC5FFA86FE0493974B974884F89A
:1040A00078505709A0FB0707A3FB0250944D84F8F2
:1040B00076E0A5FB0258934D84F877C0A5FB025625
:1040C000914DC008A5FB02159DF8141084F87510D9
:1040D000A3FB00E1C90801EB8101FF09A0EB41014D
:1040E00000EB8000A2EB4000A3FB07E2D2084FEAFE
:1040F0005818B6096D0B02EB8202A7EB4207A3FB2F
:1041000008E2A3FB06CEA3FB05C3DB0803EB830396
:10411000D2084FEADE0EA5EB430502EB82029DF8C2
:10412000103084F874300EEB8E0EA8EB4202A6EB32
:104130004E0E9DF8183084F8733084F8691084F8B6
:104140006A0084F8657084F8682084F867E084F871
:104150006650FCF70FBD069204920592964694466F
:104160009BE7BEF4B4A9401AC0B20AF0B9F900FB4B
:1041700005F00246C3173946404616461F46FCF76F
:10418000A7F80190A07B0AF0ABF93B460546324602
:1041900080FB0801FCF79CF8019B03FB15030293CD
:1041A000FEF795B9AAB20023A07BCDE902230AF05D
:1041B00097F9DDE90223054639464046FCF788F8C1
:1041C000DDE902230646019085FB0801FCF780F833
:1041D00006FB15030293FEF77AB9BEF4C1A8801A54
:1041E000C0B20AF07DF900FB05F00246C31739465C
:1041F000404616461F46FCF76BF80190A07B0AF07C
:104200006FF93B460546324680FB0801FCF760F833
:10421000019B03FB15030293FEF7A2B8AAB2002389
:10422000A07BCDE902230AF05BF9DDE90223054614
:1042300039464046FCF74CF8DDE90223064601907A
:1042400085FB0801FCF744F806FB15030293FEF713
:1042500087B894F85920012A227838D0062A30D01D
:10426000082A7CF4EAAD09220223227084F8873000
:10427000FDF70DB894F85930042B17D07A22432358
:1042800084F8795084F87A5084F87B2084F87C3064
:104290001E4B1D20197808F053FC0BF0E1F91B4B65
:1042A0000020197804F0CCF9FDF777BCC82242232E
:1042B00084F8795084F87A5084F87B2084F87C3034
:1042C000E6E7072284F887302270FCF7B6BD062A9D
:1042D000C6D10E4BF420197809F072F8092384F83E
:1042E00087602370FCF7D3BF072284F88830A27060
:1042F000FCF740BCA0860100CDCCCCCCC55A7C0AD2
:104300001F85EB51D34D62105917B7D1000800201B
:1043100002220B2108A809F003FFFDF728BE062A98
:104320007EF477A98F4BF420197809F049F8092316
:1043300084F88860A370FCF7FBBE02220B2108A85A
:1043400009F0EEFEFDF7AABC94F8923094F8916063
:1043500094F8942094F89310A07B03EB8303C6EBAE
:10436000461703EB830306EB87069B0003EBC603AC
:10437000134401EB810103EB41039BB205FB03F600
:104380000AF0AEF8074620790AF0AAF800FB07F712
:10439000E07E0AF0A5F8744A744997FBF0F3B6FB87
:1043A000F3F34FEA531EA1FB0E1EA2FB031070494C
:1043B000A1FB03176F49A1FB031C6F494FEADE1EE7
:1043C000A1FB0361C008A2FB0E86490B0491F6080D
:1043D000A2FB008105967F09C908A2FB076801EBD3
:1043E0008101059E05914FEAD80804994FEA9C1C6B
:1043F00008EB880806EB8606CDF81880AEEB460E73
:10440000A2FB0C86A2FB01280599F208A0EB410152
:1044100000EB8000A3EB4003069E04984FEAD80807
:1044200002EB8202ACEB420208EB8808A7EB4607DE
:10443000A0EB4808DEB2D3B25FFA8EF004935FFAC5
:1044400088F306905FFA81FC5FFA87FE0593FDF71B
:104450006EB8022210210FA809F062FEFDF703B822
:104460000B2E3DF4F0AC0C2E7CF484AB3D4B187855
:104470000AF06EFA94F85950012D00F0768201236B
:1044800084F8823084F884300B23A370FDF7A3BB3B
:1044900002220F210FA809F043FEFDF701BD08A875
:1044A00009F026FAFDF7E8BC02220A2108A809F063
:1044B00037FEFDF7DCBC2B4B0220197808F040FBDF
:1044C0000BF0CEF8FCF7A4BFFF2244234FF0970E69
:1044D0000FA97E264FF02508002708208DF83E20E2
:1044E00005928DF83F3004938DF842E08DF83D50F1
:1044F0008DF83C608DF843608DF840808DF84170F8
:104500000AF0BEFC4FF47A7008F09AFA0AF010FD37
:1045100041F2883008F094FA96254FF0020E059A81
:10452000049B8DF83E200FA908208DF83F308DF8B0
:104530003DE08DF83C608DF840808DF841708DF83D
:1045400043608DF842500AF09BFC4FF47A7008F0FB
:1045500077FA0AF0EDFC41F2883008F071FAFDF7C5
:1045600007BA00BF00080020CDCCCCCCC55A7C0ACD
:104570001F85EB51D34D62105917B7D19DF84A30C2
:104580007E2B01F088809DF84B307E2B00F0CE848E
:104590009DF84C307E2B00F0A4869DF84D307E2B8C
:1045A00000F0ED829DF84E307E2B00F08F879DF855
:1045B0004F307E2B00F0D6839DF850307E2B00F0DC
:1045C000AB859DF851307E2B00F0F6819DF852307E
:1045D0007E2B7DF46FAC022217210FA809F020FE7C
:1045E0000DF11F03002203F8012F0DF1350199424F
:1045F000F9D10523194616AA50181A44013112F8A8
:104600001C2C00F8382C7D2AC9B20BD10133DBB247
:1046100016AA1A4412F81C2C02F00F0242F0700283
:1046200000F8382C0133DBB2152BE4D908A809F0C7
:1046300067FFD64BD3E9002352EA030101F0FE8065
:10464000D34BD449D44E0878A3FB02184FEAD808BC
:104650005109A6FB0161A3FB086CD04EA6FB026EBC
:10466000CF4E4FEADC0CA6FB0267C909CD4E049180
:104670000CEB8C01A6FB02C6A8EB410C049984F854
:1046800019C008EB8808A2EB4802A3FB018C4FEA93
:10469000DC0C4FEA5E1E0CEB8C0CA1EB4C01A3FB77
:1046A0000E8C4FEADC0CBF09760B0CEB8C0CAEEBDE
:1046B0004C0EA3FB078CA3FB06834FEADC0CDB0844
:1046C0000CEB8C0C03EB8303A6EB4303A7EB4C0C26
:1046D000A2760C226175A37584F8882084F818E00E
:1046E00084F817C00AF02CFD94F8923094F8916089
:1046F00094F8942094F89310A07B03EB8303C6EB0B
:10470000461703EB830306EB87069B0003EBC60308
:104710001A4401EB81019D4B02EB410292B21E68EB
:10472000596892B2A6FB026701FB0277002801F0EC
:104730006F8009F0D5FE8046207909F0D1FE9A4BB2
:1047400000FB08F083FB0023C217C2EB2332304684
:104750003946D317FBF7BCFDE37EC3F10408B8F17B
:10476000000F06460F4618DD304639460A22002360
:10477000FBF7AEFD30460492394600230A22FBF7D0
:10478000A7FD049B0135042B06460F46EDB202D966
:10479000461C41F100074545E6DB7D4B7D4AA3FB06
:1047A000061C7D4910787209A1FB02127B494FEA71
:1047B000DC0CA1FB061EA3FB0C187949D209A1FB56
:1047C0000615784904924FEAD802A1FB068102EB54
:1047D0008208ACEB4808049A84F826800CEB8C0C19
:1047E000A6EB4C0C84F827C0A3FB028C4FEADC0C30
:1047F0004FEA5E1E0CEB8C0CA2EB4C02A3FB0E8C62
:104800004FEADC0C490BAD090CEB8C0CAEEB4C0EFB
:10481000A3FB058CA3FB01834FEADC0CDB080CEB4C
:104820008C0C03EB8303A5EB4C0CA1EB430384F846
:1048300025E084F824C084F8222084F8233007F08F
:1048400087FB94F84F50594A94F84E10584B94F8FF
:10485000500002FB05F2574D03FB012194F8513043
:1048600094F8522005FB001142F2107000FB031374
:104870004FF47A7594F8531094F8540005FB023203
:10488000642313FB012294F85510404D0A2313FBB7
:1048900000230B44F61847EBE37700220023C5E919
:1048A0000023304639460A220023FBF711FD30462B
:1048B00084F8552039460A220023FBF709FD0A2215
:1048C0000023FBF705FD304684F854203946642266
:1048D0000023FBF7FDFC0A220023FBF7F9FC30461E
:1048E00084F8532039464FF47A720023FBF7F0FC2A
:1048F0000A220023FBF7ECFC304684F852203946AC
:1049000042F210720023FBF7E3FC0A220023FBF7BC
:10491000DFFC304684F851203946264A0023FBF755
:10492000D7FC0A220023FBF7D3FC304684F8502042
:1049300039461E4A0023FBF7CBFC0A220023FBF773
:10494000C7FC304684F84F203946194A0023FBF74C
:10495000BFFC0A220023FBF7BBFC0E4B84F84E2061
:10496000187807F025FAFCF705B9062008F038FF9B
:1049700094F8593084F88250012B84F884507FF4E5
:1049800083AD0623A370FDF726B900BF08090020F8
:10499000CDCCCCCC00080020C55A7C0A1F85EB5139
:1049A000D34D62105917B7D1AD8BDB6840420F0071
:1049B00080969800A0860100022216210FA809F017
:1049C0002FFC0DF11F03002203F8012F0DA99942BE
:1049D000FAD10523194616AA50181A44013112F8C3
:1049E0001C2C00F8382C7D2AC9B20BD10133DBB264
:1049F00016AA1A4412F81C2C02F00F0242F07002A0
:104A000000F8382C0133DBB2142BE4D908A809F0E4
:104A100077FDCC4BD3E9002352EA030100F00E8767
:104A2000C94BCA49CA4E0878A3FB02184FEAD808F6
:104A30005109A6FB0161A3FB086CC64EA6FB026EE2
:104A4000C54E4FEADC0CA6FB0267C909C34E0491B0
:104A50000CEB8C01A6FB02C6A8EB410C049984F870
:104A600019C008EB8808A2EB4802A3FB018C4FEAAF
:104A7000DC0C4FEA5E1E0CEB8C0CA1EB4C01A3FB93
:104A80000E8C4FEADC0CBF09760B0CEB8C0CAEEBFA
:104A90004C0EA3FB078CA3FB06834FEADC0CDB0860
:104AA0000CEB8C0C03EB8303A6EB4303A7EB4C0C42
:104AB000A2760C226175A37584F8882084F818E02A
:104AC00084F817C00AF03CFB94F8923094F8916097
:104AD00094F8942094F89310A07B03EB8303C6EB27
:104AE000461703EB830306EB87069B0003EBC60325
:104AF0001A4401EB8101934B02EB410292B21E6812
:104B0000596892B2A6FB026701FB0277002800F009
:104B10007F8609F0E5FC8046207909F0E1FC904BA6
:104B200000FB08F083FB0023C217C2EB23323046A0
:104B30003946D317FBF7CCFBE37EC3F10408B8F189
:104B4000000F06460F467FF728AE304639460A2248
:104B50000023FBF7BDFB30460492394600230A22AE
:104B6000FBF7B6FB049B0135042B06460F46EDB25E
:104B700002D9461C41F100074545E6DB0DE602225D
:104B800012210FA809F04CFB0DF11F03002203F8BE
:104B9000012F0CA99942FAD10523194616AA5018DB
:104BA0001A44013112F81C2C00F8382C7D2AC9B2A5
:104BB0000BD10133DBB216AA1A4412F81C2C02F0F6
:104BC0000F0242F0700200F8382C0133DBB2102BD8
:104BD000E4D908A809F094FC5A4BD3E9002352EA1F
:104BE000030100F02B86584B5849594E0878A3FB17
:104BF00002184FEAD8085109A6FB0161A3FB086C13
:104C0000544EA6FB026E544E4FEADC0CA6FB026724
:104C1000C909524E04910CEB8C01A6FB02C6A8EB0D
:104C2000410C049984F819C008EB8808A2EB4802EB
:104C3000A3FB018C4FEADC0C4FEA5E1E0CEB8C0CE4
:104C4000A1EB4C01A3FB0E8C4FEADC0CBF09760BE9
:104C50000CEB8C0CAEEB4C0EA3FB078CA3FB06837A
:104C60004FEADC0CDB080CEB8C0C03EB8303A6EBAC
:104C70004303A7EB4C0CA2760C226175A37584F854
:104C8000882084F818E084F817C00AF059FA94F8DC
:104C9000923094F8916094F8942094F89310A07B4B
:104CA00003EB8303C6EB461703EB830306EB870690
:104CB0009B0003EBC6031A4401EB8101214B02EB7D
:104CC000410292B21E68596892B2A6FB026701FBCC
:104CD0000277002800F09C8509F002FC80462079CC
:104CE00009F0FEFB1E4B00FB08F083FB0023C217FC
:104CF000C2EB233230463946D317FBF7E9FAE37E9D
:104D0000C3F10408B8F1000F06460F467FF745AD22
:104D1000304639460A220023FBF7DAFA304604927D
:104D2000394600230A22FBF7D3FA049B0135042BF2
:104D300006460F46EDB202D9461C41F10007454533
:104D4000E6DB2AE508090020CDCCCCCC0008002009
:104D5000C55A7C0A1F85EB51D34D62105917B7D144
:104D6000AD8BDB68022214210FA809F059FA0DF16E
:104D70001F03002203F8012F0DF132018B42F9D1FC
:104D80000523194616AA50181A44013112F81C2C92
:104D900000F8382C7D2AC9B20BD10133DBB216AA38
:104DA0001A4412F81C2C02F00F0242F0700200F8B4
:104DB000382C0133DBB2122BE4D908A809F0A0FB90
:104DC000CD4BD3E9002352EA030100F03785CB4BEA
:104DD000CB49CC4E0878A3FB02184FEAD8085109FA
:104DE000A6FB0161A3FB086CC74EA6FB026EC74E73
:104DF0004FEADC0CA6FB0267C909C54E04910CEB17
:104E00008C01A6FB02C6A8EB410C049984F819C0DA
:104E100008EB8808A2EB4802A3FB018C4FEADC0CEC
:104E20004FEA5E1E0CEB8C0CA1EB4C01A3FB0E8C2D
:104E30004FEADC0CBF09760B0CEB8C0CAEEB4C0E86
:104E4000A3FB078CA3FB06834FEADC0CDB080CEB0F
:104E50008C0C03EB8303A6EB4303A7EB4C0CA2766D
:104E60000C226175A37584F8882084F818E084F812
:104E700017C00AF065F994F8923094F8916094F8AC
:104E8000942094F89310A07B03EB8303C6EB4617A2
:104E900003EB830306EB87069B0003EBC6031A4470
:104EA00001EB8101944B02EB410292B21E685968FA
:104EB00092B2A6FB026701FB0277002800F0A884EB
:104EC00009F00EFB8046207909F00AFB914B00FBAC
:104ED00008F083FB0023C217C2EB23323046394669
:104EE000D317FBF7F5F9E37EC3F10408B8F1000F1F
:104EF00006460F467FF751AC304639460A2200235A
:104F0000FBF7E6F930460492394600230A22FBF704
:104F1000DFF9049B0135042B06460F46EDB202D99A
:104F2000461C41F100074545E6DB36E4022210212C
:104F30000FA809F075F90DF11F03002203F8012FE6
:104F40000DF12E019942F9D10523194616AA5018E0
:104F50001A44013112F81C2C00F8382C7D2AC9B2F1
:104F60000BD10133DBB216AA1A4412F81C2C02F042
:104F70000F0242F0700200F8382C0133DBB20E2B26
:104F8000E4D908A809F0BCFA5B4BD3E9002352EA44
:104F9000030100F05384594B59495A4E0878A3FB3A
:104FA00002184FEAD8085109A6FB0161A3FB086C5F
:104FB000554EA6FB026E554E4FEADC0CA6FB02676F
:104FC000C909534E04910CEB8C01A6FB02C6A8EB59
:104FD000410C049984F819C008EB8808A2EB480238
:104FE000A3FB018C4FEADC0C4FEA5E1E0CEB8C0C31
:104FF000A1EB4C01A3FB0E8C4FEADC0CBF09760B36
:105000000CEB8C0CAEEB4C0EA3FB078CA3FB0683C6
:105010004FEADC0CDB080CEB8C0C03EB8303A6EBF8
:105020004303A7EB4C0CA2760C226175A37584F8A0
:10503000882084F818E084F817C00AF081F894F802
:10504000923094F8916094F8942094F89310A07B97
:1050500003EB8303C6EB461703EB830306EB8706DC
:105060009B0003EBC6031A4401EB8101224B02EBC8
:10507000410292B21E68596892B2A6FB026701FB18
:105080000277002800F0C48309F02AFA80462079CC
:1050900009F026FA1F4B00FB08F083FB0023C21720
:1050A000C2EB233230463946D317FBF711F9E37EC2
:1050B000C3F10408B8F1000F06460F467FF76DAB49
:1050C000304639460A220023FBF702F930460492A3
:1050D000394600230A22FBF7FBF8049B0135042B19
:1050E00006460F46EDB202D9461C41F10007A8451D
:1050F000E6DCFFF752BB00BF08090020CDCCCCCCCA
:1051000000080020C55A7C0A1F85EB51D34D621060
:105110005917B7D1AD8BDB68022215210FA809F012
:105120007FF80DF11F03002203F8012F0DF1330169
:105130009942F9D10523194616AA50181A4401318B
:1051400012F81C2C00F8382C7D2AC9B20BD101337F
:10515000DBB216AA1A4412F81C2C02F00F0242F01D
:10516000700200F8382C0133DBB2132BE4D908A805
:1051700009F0C6F9CD4BD3E9002352EA030100F050
:105180005D83CB4BCB49CC4E0878A3FB02184FEA8A
:10519000D8085109A6FB0161A3FB086CC74EA6FB0A
:1051A000026EC74E4FEADC0CA6FB0267C909C54E6A
:1051B00004910CEB8C01A6FB02C6A8EB410C0499F0
:1051C00084F819C008EB8808A2EB4802A3FB018C05
:1051D0004FEADC0C4FEA5E1E0CEB8C0CA1EB4C0191
:1051E000A3FB0E8C4FEADC0CBF09760B0CEB8C0C8E
:1051F000AEEB4C0EA3FB078CA3FB06834FEADC0C43
:10520000DB080CEB8C0C03EB8303A6EB4303A7EB4F
:105210004C0CA2760C226175A37584F8882084F862
:1052200018E084F817C009F08BFF94F8923094F8D6
:10523000916094F8942094F89310A07B03EB83037F
:10524000C6EB461703EB830306EB87069B0003EBD5
:10525000C6031A4401EB8101944B02EB410292B266
:105260001E68596892B2A6FB026701FB027700280C
:1052700000F0CE8209F034F98046207909F030F947
:10528000914B00FB08F083FB0023C217C2EB2332D3
:1052900030463946D317FBF71BF8E37EC3F1040809
:1052A000B8F1000F06460F467FF777AA3046394619
:1052B0000A220023FBF70CF83046049239460023FB
:1052C0000A22FBF705F8049B0135042B06460F461E
:1052D000EDB202D9461C41F100074545E6DBFFF778
:1052E0005CBA022211210FA808F09AFF0DF11F03EA
:1052F000002203F8012F0DF12F018B42F9D1052374
:10530000194616AA50181A44013112F81C2C00F83C
:10531000382C7D2AC9B20BD10133DBB216AA1A444C
:1053200012F81C2C02F00F0242F0700200F8382C28
:105330000133DBB20F2BE4D908A809F0E1F85B4B8D
:10534000D3E9002352EA030100F07882584B59490F
:10535000594E0878A3FB02184FEAD8085109A6FB5A
:105360000161A3FB086C554EA6FB026E544E4FEA3A
:10537000DC0CA6FB0267C909524E04910CEB8C01B0
:10538000A6FB02C6A8EB410C049984F819C008EBEF
:105390008808A2EB4802A3FB018C4FEADC0C4FEA21
:1053A0005E1E0CEB8C0CA1EB4C01A3FB0E8C4FEAA8
:1053B000DC0CBF09760B0CEB8C0CAEEB4C0EA3FB9C
:1053C000078CA3FB06834FEADC0CDB080CEB8C0C90
:1053D00003EB8303A6EB4303A7EB4C0CA2760C2252
:1053E0006175A37584F8882084F818E084F817C0E4
:1053F00009F0A6FE94F8923094F8916094F8942005
:1054000094F89310A07B03EB8303C6EB461703EBE2
:10541000830306EB87069B0003EBC6031A4401EBEC
:105420008101224B02EB410292B21E68596892B28E
:10543000A6FB026701FB0277002800F0E98109F072
:105440004FF88046207909F04BF81F4B00FB08F01D
:1054500083FB0023C217C2EB233230463946D317F1
:10546000FAF736FFE37EC3F10408B8F1000F0646F1
:105470000F467FF792A9304639460A220023FAF7F1
:1054800027FF30460492394600230A22FAF720FF0C
:10549000049B0135042B06460F46EDB202D9461C8B
:1054A00041F10007A845E6DCFFF777B908090020BD
:1054B000CDCCCCCC00080020C55A7C0A1F85EB510E
:1054C000D34D62105917B7D1AD8BDB68022213217F
:1054D0000FA808F0A5FE0DF11F03002203F8012F0D
:1054E0000DF131018B42F9D10523194616AA501846
:1054F0001A44013112F81C2C00F8382C7D2AC9B24C
:105500000BD10133DBB216AA1A4412F81C2C02F09C
:105510000F0242F0700200F8382C0133DBB2112B7D
:10552000E4D908A808F0ECFFD94BD3E9002352EAEC
:10553000030100F08381D74BD749D84E0878A3FBED
:1055400002184FEAD8085109A6FB0161A3FB086CB9
:10555000D34EA6FB026ED34E4FEADC0CA6FB0267CD
:10556000C909D14E04910CEB8C01A6FB02C6A8EB35
:10557000410C049984F819C008EB8808A2EB480292
:10558000A3FB018C4FEADC0C4FEA5E1E0CEB8C0C8B
:10559000A1EB4C01A3FB0E8C4FEADC0CBF09760B90
:1055A0000CEB8C0CAEEB4C0EA3FB078CA3FB068321
:1055B0004FEADC0CDB080CEB8C0C03EB8303A6EB53
:1055C0004303A7EB4C0CA2760C226175A37584F8FB
:1055D000882084F818E084F817C009F0B1FD94F829
:1055E000923094F8916094F8942094F89310A07BF2
:1055F00003EB8303C6EB461703EB830306EB870637
:105600009B0003EBC6031A4401EB8101A04B02EBA4
:10561000410292B21E68596892B2A6FB026701FB72
:105620000277002800F0F48008F05AFF80462079C5
:1056300008F056FF9D4B00FB08F083FB0023C217C8
:10564000C2EB233230463946D317FAF741FEE37EE8
:10565000C3F10408B8F1000F06460F467FF79DA876
:10566000304639460A220023FAF732FE30460492C9
:10567000394600230A22FAF72BFE049B0135042B3E
:1056800006460F46EDB202D9461C41F100074545DA
:10569000E6DBFFF782B802220F210FA808F0C0FD59
:1056A0000FA808F02DFF7A4BD3E9002352EA03013B
:1056B00000F0C480774B7849784E0878A3FB021835
:1056C0004FEAD8085109A6FB0161A3FB086C744E90
:1056D000A6FB026E734E4FEADC0CA6FB0267C909FB
:1056E000714E04910CEB8C01A6FB02C6A8EB410C99
:1056F000049984F819C008EB8808A2EB4802A3FBC0
:10570000018C4FEADC0C4FEA5E1E0CEB8C0CA1EB1B
:105710004C01A3FB0E8C4FEADC0CBF09760B0CEBA3
:105720008C0CAEEB4C0EA3FB078CA3FB06834FEA5D
:10573000DC0CDB080CEB8C0C03EB8303A6EB4303C4
:10574000A7EB4C0CA2760C226175A37584F8882017
:1057500084F818E084F817C009F0F2FC94F892304D
:1057600094F8916094F8942094F89310A07B03EB44
:105770008303C6EB461703EB830306EB87069B0008
:1057800003EBC6031A4401EB8101414B02EB4102DA
:1057900092B21E68596892B2A6FB026701FB0277BB
:1057A000B0B308F09DFE8046207908F099FE3F4B8B
:1057B00000FB08F083FB0023C217C2EB2332304604
:1057C0003946D317FAF784FDE37EC3F10408B8F134
:1057D000000F06460F467EF7E0AF304639460A22F4
:1057E0000023FAF775FD30460492394600230A2259
:1057F000FAF76EFD049B0135042B06460F46EDB209
:1058000002D9461C41F10007A845E6DCFEF7C5BFFA
:1058100008F066FE0546207908F062FE00FB05F5FB
:10582000E07E08F05DFE394695FBF0F23046D31776
:10583000FAF74EFD06460F46FEF7AFBF164B187837
:1058400009F086F8062300251846A370A57665762C
:105850002576E575A575657584F8275084F826507A
:1058600084F8255084F8245084F8235084F822507A
:1058700007F0B6FF084A84F888500123117884F8AD
:105880008230022007F05CF909F0EAFEFBF772B9FA
:1058900008090020CDCCCCCC00080020C55A7C0AD9
:1058A0001F85EB51D34D62105917B7D1AD8BDB6813
:1058B0002DE98048D54BD64AD6499B69D64CD74D61
:1058C000D74EA3B00DF142070492D64A0592029139
:1058D000D54AD64903919A6105E0642007F0B0F8F3
:1058E000642007F0ADF894F85930022B01D0042B56
:1058F000F3D14FF4FA714FF00008304685F800807C
:1059000007F016F82870142007F09AF894F856302B
:10591000012B3ED094F85730012BE1D12A78E07862
:10592000824200F0B08140F010018A4200F0848190
:1059300040F020039A4200F0A88140F030039A42E0
:1059400000F06282FC2A40F03A822378092B00F0B2
:105950007687063B022B0CD800230622227084F89F
:105960005A3084F87D3084F8283084F8873084F801
:105970009830A378092B00F04E8200230622A270F3
:1059800084F85B3084F87E3084F8293084F88830DD
:10599000A6E72A786078824248D040F010018A4217
:1059A00030D040F020039A4252D040F030039A4267
:1059B00000F05581FC2A40F0E480A378092B00F028
:1059C000D48600230622A27084F85B3084F87E30EF
:1059D00084F8293084F888302378092B00F0468138
:1059E000063B022B3FF67CAF00230622227084F890
:1059F0005A3084F87D3084F8283084F8873084F871
:105A000098306DE722780C2A00F01982072A00F0FE
:105A10000F82062A00F01C85637B13F0F00F7FF4E1
:105A20005FAF0121F42007F0CBFC59E721788048D3
:105A30000901C9B211434FF0FF3206F0A1FE322036
:105A400006F0FEFF0521304606F072FF687047E75A
:105A500040F0D0014FF0FF327548DFF8D8A106F0D2
:105A60008FFE4FF4FA71304606F062FFC0B208F1C3
:105A70000108F0280AF8010F5FFA88F8637800F04F
:105A8000C082984243F020023FF42AAFE17881427D
:105A90003FF426AF904200F0B782B8F1140FE0D186
:105AA000D2B282423FF41CAFE878FE2800F038877B
:105AB00000F10C03DBB2012B40F20A85F12800F063
:105AC000D286F2287FF40CAF2378092B3FF408AF7D
:105AD000A8F10201302300292B7040F3B287002087
